{
  "_format": "hh-sol-artifact-1",
  "contractName": "Ownable",
  "sourceName": "contracts/Token.sol",
  "abi": [
    {
      "anonymous": false,
      "inputs": [
        {
          "indexed": true,
          "internalType": "address",
          "name": "_from",
          "type": "address"
        },
        {
          "indexed": true,
          "internalType": "address",
          "name": "_to",
          "type": "address"
        }
      ],
      "name": "OwnershipTransferred",
      "type": "event"
    },
    {
      "inputs": [],
      "name": "acceptOwnership",
      "outputs": [],
      "stateMutability": "nonpayable",
      "type": "function"
    },
    {
      "inputs": [],
      "name": "admin",
      "outputs": [
        {
          "internalType": "address",
          "name": "",
          "type": "address"
        }
      ],
      "stateMutability": "view",
      "type": "function"
    },
    {
      "inputs": [],
      "name": "newAdmin",
      "outputs": [
        {
          "internalType": "address",
          "name": "",
          "type": "address"
        }
      ],
      "stateMutability": "view",
      "type": "function"
    },
    {
      "inputs": [
        {
          "internalType": "address",
          "name": "_to",
          "type": "address"
        }
      ],
      "name": "transferOwnership",
      "outputs": [],
      "stateMutability": "nonpayable",
      "type": "function"
    }
  ],
  "bytecode": "0x608060405234801561001057600080fd5b5061084b806100206000396000f3fe608060405234801561001057600080fd5b506004361061004c5760003560e01c80633ea263841461005157806379ba50971461006f578063f2fde38b14610079578063f851a44014610095575b600080fd5b6100596100b3565b604051610066919061071f565b60405180910390f35b6100776100d9565b005b610093600480360381019061008e919061076b565b610459565b005b61009d6106b7565b6040516100aa919061071f565b60405180910390f35b600160009054906101000a900473ffffffffffffffffffffffffffffffffffffffff1681565b6101057f5d23e5e3b2f47cdcf558beac0be307098a5b043529a702be4650efa1d4d1d7be60001b6106db565b6101317f7a50d0af82afcc21f72c8ce3e039c0a2cc468b2f839fdee4baaa53eee5c0d47560001b6106db565b61015d7f0c92613aa5fc6b44b6f30fb1b50b6f8293b5acf7526c8d92891d214e334181f460001b6106db565b6101897fca24bec7010eda9f376abcdbf494ae769646995c3f710c8938962ed71d3600bc60001b6106db565b600160009054906101000a900473ffffffffffffffffffffffffffffffffffffffff1673ffffffffffffffffffffffffffffffffffffffff163373ffffffffffffffffffffffffffffffffffffffff16146101e357600080fd5b61020f7fd1aed6ed80ad3c82631fa42257bd11d876c9f065b2f3195a31f7a483ba1ffd1060001b6106db565b61023b7f70023e68b847d78742693068b91d89312cca1a5084d2450b20e690599724516960001b6106db565b6102677ffcf050b23c178dc6477d694fbebf272b0fde34f397af3a7e1f0ca7ac77dfab1d60001b6106db565b600160009054906101000a900473ffffffffffffffffffffffffffffffffffffffff1673ffffffffffffffffffffffffffffffffffffffff1660008054906101000a900473ffffffffffffffffffffffffffffffffffffffff1673ffffffffffffffffffffffffffffffffffffffff167f8be0079c531659141344cd1fd0a4f28419497f9722a3daafe3b4186f6b6457e060405160405180910390a361032f7f4cf7509ce00679999eac9a28d3a563a3dba353b0931b944faa84aeae93976cb960001b6106db565b61035b7f95694c5e9ce87823b55540d6d064dad747e202b96789b924a200943fc2385f5460001b6106db565b600160009054906101000a900473ffffffffffffffffffffffffffffffffffffffff166000806101000a81548173ffffffffffffffffffffffffffffffffffffffff021916908373ffffffffffffffffffffffffffffffffffffffff1602179055506103e97fca1a79d813bab9105db97c9b04c4538df4457ce3d6476ff890f24e809404707260001b6106db565b6104157f5e81898e11965447ed11d3327d5983dfc681c45ebce5c8675e2be4c8e72e332960001b6106db565b6000600160006101000a81548173ffffffffffffffffffffffffffffffffffffffff021916908373ffffffffffffffffffffffffffffffffffffffff160217905550565b6104857f4f5a05342282b4403d08f56e5cbd52db4cd2a9242799b7c330dca57f80c9574960001b6106db565b6104b17fe8ce8e33b4b574198ef09164d07849c6b8fa1c961e88df06a11a4db8f7bd4cd160001b6106db565b6104dd7fb70ade5c4babb830b83f73ed0a11c2962eabb5d704dfa935725dbfb962862afd60001b6106db565b6105097f8ce933a719e658ac1a31322d8c5cc0e06547e3c2d1b0bdb150aad29637cc555d60001b6106db565b60008054906101000a900473ffffffffffffffffffffffffffffffffffffffff1673ffffffffffffffffffffffffffffffffffffffff163373ffffffffffffffffffffffffffffffffffffffff1614610597576040517f08c379a000000000000000000000000000000000000000000000000000000000815260040161058e906107f5565b60405180910390fd5b6105c37f3ba9fb20f64e25d76a83f522b35541c98aaa670c26de50b220f4c9cb7d6cde1b60001b6106db565b6105ef7f8d9cd7c7e5277864ca4cb299f4853ccec2300bd30f1715b7ee964430b2efad7f60001b6106db565b61061b7f38f59a4daf122591d19d5ed745d116d295c956f00a52703f6790ee8718e4e0d360001b6106db565b6106477f76990bb89a233facb01a5f87616b7b47f6e5919b06c44c8fb9f374f0926dfdd060001b6106db565b6106737f43da0c1f68244910bb8f0cabdb60fb4ca429aab807995f15a2a8f9d9905747bc60001b6106db565b80600160006101000a81548173ffffffffffffffffffffffffffffffffffffffff021916908373ffffffffffffffffffffffffffffffffffffffff16021790555050565b60008054906101000a900473ffffffffffffffffffffffffffffffffffffffff1681565b50565b600073ffffffffffffffffffffffffffffffffffffffff82169050919050565b6000610709826106de565b9050919050565b610719816106fe565b82525050565b60006020820190506107346000830184610710565b92915050565b600080fd5b610748816106fe565b811461075357600080fd5b50565b6000813590506107658161073f565b92915050565b6000602082840312156107815761078061073a565b5b600061078f84828501610756565b91505092915050565b600082825260208201905092915050565b7f6f6e6c79204f776e65722063616e206163636573730000000000000000000000600082015250565b60006107df601583610798565b91506107ea826107a9565b602082019050919050565b6000602082019050818103600083015261080e816107d2565b905091905056fea2646970667358221220ed87f673c07f2c1544073f92aa147c26733265a548d803acfdcdced839c4ec5764736f6c63430008090033",
  "linkReferences": {},
  "deployedLinkReferences": {}
}