{
  "_format": "hh-sol-artifact-1",
  "contractName": "Token",
  "sourceName": "contracts/Token.sol",
  "abi": [
    {
      "inputs": [],
      "stateMutability": "nonpayable",
      "type": "constructor"
    },
    {
      "anonymous": false,
      "inputs": [
        {
          "indexed": true,
          "internalType": "address",
          "name": "owner",
          "type": "address"
        },
        {
          "indexed": true,
          "internalType": "address",
          "name": "spender",
          "type": "address"
        },
        {
          "indexed": false,
          "internalType": "uint256",
          "name": "value",
          "type": "uint256"
        }
      ],
      "name": "Approval",
      "type": "event"
    },
    {
      "anonymous": false,
      "inputs": [
        {
          "indexed": true,
          "internalType": "address",
          "name": "_from",
          "type": "address"
        },
        {
          "indexed": true,
          "internalType": "address",
          "name": "_to",
          "type": "address"
        }
      ],
      "name": "OwnershipTransferred",
      "type": "event"
    },
    {
      "anonymous": false,
      "inputs": [
        {
          "indexed": false,
          "internalType": "address",
          "name": "account",
          "type": "address"
        }
      ],
      "name": "Paused",
      "type": "event"
    },
    {
      "anonymous": false,
      "inputs": [
        {
          "indexed": true,
          "internalType": "address",
          "name": "from",
          "type": "address"
        },
        {
          "indexed": true,
          "internalType": "address",
          "name": "to",
          "type": "address"
        },
        {
          "indexed": false,
          "internalType": "uint256",
          "name": "value",
          "type": "uint256"
        }
      ],
      "name": "Transfer",
      "type": "event"
    },
    {
      "anonymous": false,
      "inputs": [
        {
          "indexed": false,
          "internalType": "address",
          "name": "account",
          "type": "address"
        }
      ],
      "name": "Unpaused",
      "type": "event"
    },
    {
      "inputs": [],
      "name": "acceptOwnership",
      "outputs": [],
      "stateMutability": "nonpayable",
      "type": "function"
    },
    {
      "inputs": [],
      "name": "admin",
      "outputs": [
        {
          "internalType": "address",
          "name": "",
          "type": "address"
        }
      ],
      "stateMutability": "view",
      "type": "function"
    },
    {
      "inputs": [
        {
          "internalType": "address",
          "name": "owner",
          "type": "address"
        },
        {
          "internalType": "address",
          "name": "spender",
          "type": "address"
        }
      ],
      "name": "allowance",
      "outputs": [
        {
          "internalType": "uint256",
          "name": "",
          "type": "uint256"
        }
      ],
      "stateMutability": "view",
      "type": "function"
    },
    {
      "inputs": [
        {
          "internalType": "address",
          "name": "spender",
          "type": "address"
        },
        {
          "internalType": "uint256",
          "name": "amount",
          "type": "uint256"
        }
      ],
      "name": "approve",
      "outputs": [
        {
          "internalType": "bool",
          "name": "success",
          "type": "bool"
        }
      ],
      "stateMutability": "nonpayable",
      "type": "function"
    },
    {
      "inputs": [
        {
          "internalType": "address",
          "name": "account",
          "type": "address"
        }
      ],
      "name": "balanceOf",
      "outputs": [
        {
          "internalType": "uint256",
          "name": "",
          "type": "uint256"
        }
      ],
      "stateMutability": "view",
      "type": "function"
    },
    {
      "inputs": [
        {
          "internalType": "uint256",
          "name": "amount",
          "type": "uint256"
        }
      ],
      "name": "burn",
      "outputs": [],
      "stateMutability": "nonpayable",
      "type": "function"
    },
    {
      "inputs": [],
      "name": "decimals",
      "outputs": [
        {
          "internalType": "uint8",
          "name": "",
          "type": "uint8"
        }
      ],
      "stateMutability": "view",
      "type": "function"
    },
    {
      "inputs": [
        {
          "internalType": "address",
          "name": "spender",
          "type": "address"
        },
        {
          "internalType": "uint256",
          "name": "subtractedValue",
          "type": "uint256"
        }
      ],
      "name": "decreaseAllowance",
      "outputs": [
        {
          "internalType": "bool",
          "name": "success",
          "type": "bool"
        }
      ],
      "stateMutability": "nonpayable",
      "type": "function"
    },
    {
      "inputs": [
        {
          "internalType": "address",
          "name": "spender",
          "type": "address"
        },
        {
          "internalType": "uint256",
          "name": "addedValue",
          "type": "uint256"
        }
      ],
      "name": "increaseAllowance",
      "outputs": [
        {
          "internalType": "bool",
          "name": "success",
          "type": "bool"
        }
      ],
      "stateMutability": "nonpayable",
      "type": "function"
    },
    {
      "inputs": [
        {
          "internalType": "address",
          "name": "to",
          "type": "address"
        },
        {
          "internalType": "uint256",
          "name": "amount",
          "type": "uint256"
        }
      ],
      "name": "mint",
      "outputs": [],
      "stateMutability": "nonpayable",
      "type": "function"
    },
    {
      "inputs": [],
      "name": "name",
      "outputs": [
        {
          "internalType": "string",
          "name": "",
          "type": "string"
        }
      ],
      "stateMutability": "view",
      "type": "function"
    },
    {
      "inputs": [],
      "name": "newAdmin",
      "outputs": [
        {
          "internalType": "address",
          "name": "",
          "type": "address"
        }
      ],
      "stateMutability": "view",
      "type": "function"
    },
    {
      "inputs": [],
      "name": "pause",
      "outputs": [],
      "stateMutability": "nonpayable",
      "type": "function"
    },
    {
      "inputs": [],
      "name": "paused",
      "outputs": [
        {
          "internalType": "bool",
          "name": "",
          "type": "bool"
        }
      ],
      "stateMutability": "view",
      "type": "function"
    },
    {
      "inputs": [],
      "name": "symbol",
      "outputs": [
        {
          "internalType": "string",
          "name": "",
          "type": "string"
        }
      ],
      "stateMutability": "view",
      "type": "function"
    },
    {
      "inputs": [],
      "name": "totalSupply",
      "outputs": [
        {
          "internalType": "uint256",
          "name": "",
          "type": "uint256"
        }
      ],
      "stateMutability": "view",
      "type": "function"
    },
    {
      "inputs": [
        {
          "internalType": "address",
          "name": "to",
          "type": "address"
        },
        {
          "internalType": "uint256",
          "name": "amount",
          "type": "uint256"
        }
      ],
      "name": "transfer",
      "outputs": [
        {
          "internalType": "bool",
          "name": "success",
          "type": "bool"
        }
      ],
      "stateMutability": "nonpayable",
      "type": "function"
    },
    {
      "inputs": [
        {
          "internalType": "address",
          "name": "from",
          "type": "address"
        },
        {
          "internalType": "address",
          "name": "to",
          "type": "address"
        },
        {
          "internalType": "uint256",
          "name": "amount",
          "type": "uint256"
        }
      ],
      "name": "transferFrom",
      "outputs": [
        {
          "internalType": "bool",
          "name": "success",
          "type": "bool"
        }
      ],
      "stateMutability": "nonpayable",
      "type": "function"
    },
    {
      "inputs": [
        {
          "internalType": "address",
          "name": "_to",
          "type": "address"
        }
      ],
      "name": "transferOwnership",
      "outputs": [],
      "stateMutability": "nonpayable",
      "type": "function"
    },
    {
      "inputs": [],
      "name": "unpause",
      "outputs": [],
      "stateMutability": "nonpayable",
      "type": "function"
    }
  ],
  "bytecode": "0x60806040523480156200001157600080fd5b506040518060400160405280600881526020017f4d7920546f6b656e0000000000000000000000000000000000000000000000008152506040518060400160405280600381526020017f4841540000000000000000000000000000000000000000000000000000000000815250816003908051906020019062000096929190620002b3565b508060049080519060200190620000af929190620002b3565b5050506000600560006101000a81548160ff021916908315150217905550620000e93369d3c21bcecceda10000006200013060201b60201c565b33600560016101000a81548173ffffffffffffffffffffffffffffffffffffffff021916908373ffffffffffffffffffffffffffffffffffffffff1602179055506200050f565b600073ffffffffffffffffffffffffffffffffffffffff168273ffffffffffffffffffffffffffffffffffffffff161415620001a3576040517f08c379a00000000000000000000000000000000000000000000000000000000081526004016200019a90620003c4565b60405180910390fd5b620001b760008383620002a960201b60201c565b8060026000828254620001cb91906200041f565b92505081905550806000808473ffffffffffffffffffffffffffffffffffffffff1673ffffffffffffffffffffffffffffffffffffffff16815260200190815260200160002060008282546200022291906200041f565b925050819055508173ffffffffffffffffffffffffffffffffffffffff16600073ffffffffffffffffffffffffffffffffffffffff167fddf252ad1be2c89b69c2b068fc378daa952ba7f163c4a11628f55a4df523b3ef836040516200028991906200048d565b60405180910390a3620002a560008383620002ae60201b60201c565b5050565b505050565b505050565b828054620002c190620004d9565b90600052602060002090601f016020900481019282620002e5576000855562000331565b82601f106200030057805160ff191683800117855562000331565b8280016001018555821562000331579182015b828111156200033057825182559160200191906001019062000313565b5b50905062000340919062000344565b5090565b5b808211156200035f57600081600090555060010162000345565b5090565b600082825260208201905092915050565b7f45524332303a206d696e7420746f20746865207a65726f206164647265737300600082015250565b6000620003ac601f8362000363565b9150620003b98262000374565b602082019050919050565b60006020820190508181036000830152620003df816200039d565b9050919050565b6000819050919050565b7f4e487b7100000000000000000000000000000000000000000000000000000000600052601160045260246000fd5b60006200042c82620003e6565b91506200043983620003e6565b9250827fffffffffffffffffffffffffffffffffffffffffffffffffffffffffffffffff03821115620004715762000470620003f0565b5b828201905092915050565b6200048781620003e6565b82525050565b6000602082019050620004a460008301846200047c565b92915050565b7f4e487b7100000000000000000000000000000000000000000000000000000000600052602260045260246000fd5b60006002820490506001821680620004f257607f821691505b60208210811415620005095762000508620004aa565b5b50919050565b61269a806200051f6000396000f3fe608060405234801561001057600080fd5b506004361061012c5760003560e01c80635c975abb116100ad578063a457c2d711610071578063a457c2d7146102fb578063a9059cbb1461032b578063dd62ed3e1461035b578063f2fde38b1461038b578063f851a440146103a75761012c565b80635c975abb1461027b57806370a082311461029957806379ba5097146102c95780638456cb59146102d357806395d89b41146102dd5761012c565b806339509351116100f457806339509351146101eb5780633ea263841461021b5780633f4ba83a1461023957806340c10f191461024357806342966c681461025f5761012c565b806306fdde0314610131578063095ea7b31461014f57806318160ddd1461017f57806323b872dd1461019d578063313ce567146101cd575b600080fd5b6101396103c5565b6040516101469190611a2f565b60405180910390f35b61016960048036038101906101649190611aea565b610457565b6040516101769190611b45565b60405180910390f35b610187610496565b6040516101949190611b6f565b60405180910390f35b6101b760048036038101906101b29190611b8a565b6104a0565b6040516101c49190611b45565b60405180910390f35b6101d561054a565b6040516101e29190611bf9565b60405180910390f35b61020560048036038101906102009190611aea565b610553565b6040516102129190611b45565b60405180910390f35b61022361056f565b6040516102309190611c23565b60405180910390f35b610241610595565b005b61025d60048036038101906102589190611aea565b610637565b005b61027960048036038101906102749190611c3e565b6106dd565b005b61028361077a565b6040516102909190611b45565b60405180910390f35b6102b360048036038101906102ae9190611c6b565b610791565b6040516102c09190611b6f565b60405180910390f35b6102d16107d9565b005b6102db610978565b005b6102e5610a1a565b6040516102f29190611a2f565b60405180910390f35b61031560048036038101906103109190611aea565b610aac565b6040516103229190611b45565b60405180910390f35b61034560048036038101906103409190611aea565b610ac8565b6040516103529190611b45565b60405180910390f35b61037560048036038101906103709190611c98565b610b6f565b6040516103829190611b6f565b60405180910390f35b6103a560048036038101906103a09190611c6b565b610bf6565b005b6103af610cca565b6040516103bc9190611c23565b60405180910390f35b6060600380546103d490611d07565b80601f016020809104026020016040519081016040528092919081815260200182805461040090611d07565b801561044d5780601f106104225761010080835404028352916020019161044d565b820191906000526020600020905b81548152906001019060200180831161043057829003601f168201915b5050505050905090565b6000610461610cf0565b61048460405180606001604052806026815260200161263f602691398484610d3a565b61048e8383610dd9565b905092915050565b6000600254905090565b60006104aa610cf0565b6104eb6040518060400160405280602081526020017f6c657474696e67202573207370656e6420257320746f6b656e73206f6e202573815250858486610dfc565b6104f484610791565b821115610536576040517f08c379a000000000000000000000000000000000000000000000000000000000815260040161052d90611d85565b60405180910390fd5b610541848484610e9e565b90509392505050565b60006012905090565b600061055d610cf0565b6105678383610ecd565b905092915050565b600660009054906101000a900473ffffffffffffffffffffffffffffffffffffffff1681565b600560019054906101000a900473ffffffffffffffffffffffffffffffffffffffff1673ffffffffffffffffffffffffffffffffffffffff163373ffffffffffffffffffffffffffffffffffffffff1614610625576040517f08c379a000000000000000000000000000000000000000000000000000000000815260040161061c90611df1565b60405180910390fd5b61062d610f04565b610635610f4d565b565b61063f610cf0565b600560019054906101000a900473ffffffffffffffffffffffffffffffffffffffff1673ffffffffffffffffffffffffffffffffffffffff163373ffffffffffffffffffffffffffffffffffffffff16146106cf576040517f08c379a00000000000000000000000000000000000000000000000000000000081526004016106c690611e5d565b60405180910390fd5b6106d98282610fb0565b5050565b600560019054906101000a900473ffffffffffffffffffffffffffffffffffffffff1673ffffffffffffffffffffffffffffffffffffffff163373ffffffffffffffffffffffffffffffffffffffff161461076d576040517f08c379a000000000000000000000000000000000000000000000000000000000815260040161076490611df1565b60405180910390fd5b6107773382611110565b50565b6000600560009054906101000a900460ff16905090565b60008060008373ffffffffffffffffffffffffffffffffffffffff1673ffffffffffffffffffffffffffffffffffffffff168152602001908152602001600020549050919050565b600660009054906101000a900473ffffffffffffffffffffffffffffffffffffffff1673ffffffffffffffffffffffffffffffffffffffff163373ffffffffffffffffffffffffffffffffffffffff161461083357600080fd5b600660009054906101000a900473ffffffffffffffffffffffffffffffffffffffff1673ffffffffffffffffffffffffffffffffffffffff16600560019054906101000a900473ffffffffffffffffffffffffffffffffffffffff1673ffffffffffffffffffffffffffffffffffffffff167f8be0079c531659141344cd1fd0a4f28419497f9722a3daafe3b4186f6b6457e060405160405180910390a3600660009054906101000a900473ffffffffffffffffffffffffffffffffffffffff16600560016101000a81548173ffffffffffffffffffffffffffffffffffffffff021916908373ffffffffffffffffffffffffffffffffffffffff1602179055506000600660006101000a81548173ffffffffffffffffffffffffffffffffffffffff021916908373ffffffffffffffffffffffffffffffffffffffff160217905550565b600560019054906101000a900473ffffffffffffffffffffffffffffffffffffffff1673ffffffffffffffffffffffffffffffffffffffff163373ffffffffffffffffffffffffffffffffffffffff1614610a08576040517f08c379a00000000000000000000000000000000000000000000000000000000081526004016109ff90611df1565b60405180910390fd5b610a10610cf0565b610a186112e7565b565b606060048054610a2990611d07565b80601f0160208091040260200160405190810160405280929190818152602001828054610a5590611d07565b8015610aa25780601f10610a7757610100808354040283529160200191610aa2565b820191906000526020600020905b815481529060010190602001808311610a8557829003601f168201915b5050505050905090565b6000610ab6610cf0565b610ac0838361134a565b905092915050565b6000610ad2610cf0565b610b126040518060400160405280601e81526020017f547279696e6720746f2073656e6420257320746f6b656e7320746f202573000081525083856113c1565b81610b1c33610791565b1015610b5d576040517f08c379a0000000000000000000000000000000000000000000000000000000008152600401610b5490611d85565b60405180910390fd5b610b678383611460565b905092915050565b6000600160008473ffffffffffffffffffffffffffffffffffffffff1673ffffffffffffffffffffffffffffffffffffffff16815260200190815260200160002060008373ffffffffffffffffffffffffffffffffffffffff1673ffffffffffffffffffffffffffffffffffffffff16815260200190815260200160002054905092915050565b600560019054906101000a900473ffffffffffffffffffffffffffffffffffffffff1673ffffffffffffffffffffffffffffffffffffffff163373ffffffffffffffffffffffffffffffffffffffff1614610c86576040517f08c379a0000000000000000000000000000000000000000000000000000000008152600401610c7d90611df1565b60405180910390fd5b80600660006101000a81548173ffffffffffffffffffffffffffffffffffffffff021916908373ffffffffffffffffffffffffffffffffffffffff16021790555050565b600560019054906101000a900473ffffffffffffffffffffffffffffffffffffffff1681565b610cf861077a565b15610d38576040517f08c379a0000000000000000000000000000000000000000000000000000000008152600401610d2f90611ec9565b60405180910390fd5b565b610dd4838383604051602401610d5293929190611ee9565b6040516020818303038152906040527f07c81217000000000000000000000000000000000000000000000000000000007bffffffffffffffffffffffffffffffffffffffffffffffffffffffff19166020820180517bffffffffffffffffffffffffffffffffffffffffffffffffffffffff8381831617835250505050611483565b505050565b600080610de46114ac565b9050610df18185856114b4565b600191505092915050565b610e9884848484604051602401610e169493929190611f27565b6040516020818303038152906040527fa366ec80000000000000000000000000000000000000000000000000000000007bffffffffffffffffffffffffffffffffffffffffffffffffffffffff19166020820180517bffffffffffffffffffffffffffffffffffffffffffffffffffffffff8381831617835250505050611483565b50505050565b600080610ea96114ac565b9050610eb685828561167f565b610ec185858561170b565b60019150509392505050565b600080610ed86114ac565b9050610ef9818585610eea8589610b6f565b610ef49190611fa2565b6114b4565b600191505092915050565b610f0c61077a565b610f4b576040517f08c379a0000000000000000000000000000000000000000000000000000000008152600401610f4290612044565b60405180910390fd5b565b610f55610f04565b6000600560006101000a81548160ff0219169083151502179055507f5db9ee0a495bf2e6ff9c91a7834c1ba4fdd244a5e8aa4e537bd38aeae4b073aa610f996114ac565b604051610fa69190611c23565b60405180910390a1565b600073ffffffffffffffffffffffffffffffffffffffff168273ffffffffffffffffffffffffffffffffffffffff161415611020576040517f08c379a0000000000000000000000000000000000000000000000000000000008152600401611017906120b0565b60405180910390fd5b61102c6000838361198c565b806002600082825461103e9190611fa2565b92505081905550806000808473ffffffffffffffffffffffffffffffffffffffff1673ffffffffffffffffffffffffffffffffffffffff16815260200190815260200160002060008282546110939190611fa2565b925050819055508173ffffffffffffffffffffffffffffffffffffffff16600073ffffffffffffffffffffffffffffffffffffffff167fddf252ad1be2c89b69c2b068fc378daa952ba7f163c4a11628f55a4df523b3ef836040516110f89190611b6f565b60405180910390a361110c60008383611991565b5050565b600073ffffffffffffffffffffffffffffffffffffffff168273ffffffffffffffffffffffffffffffffffffffff161415611180576040517f08c379a000000000000000000000000000000000000000000000000000000000815260040161117790612142565b60405180910390fd5b61118c8260008361198c565b60008060008473ffffffffffffffffffffffffffffffffffffffff1673ffffffffffffffffffffffffffffffffffffffff16815260200190815260200160002054905081811015611212576040517f08c379a0000000000000000000000000000000000000000000000000000000008152600401611209906121d4565b60405180910390fd5b8181036000808573ffffffffffffffffffffffffffffffffffffffff1673ffffffffffffffffffffffffffffffffffffffff16815260200190815260200160002081905550816002600082825461126991906121f4565b92505081905550600073ffffffffffffffffffffffffffffffffffffffff168373ffffffffffffffffffffffffffffffffffffffff167fddf252ad1be2c89b69c2b068fc378daa952ba7f163c4a11628f55a4df523b3ef846040516112ce9190611b6f565b60405180910390a36112e283600084611991565b505050565b6112ef610cf0565b6001600560006101000a81548160ff0219169083151502179055507f62e78cea01bee320cd4e420270b5ea74000d11b0c9f74754ebdbfc544b05a2586113336114ac565b6040516113409190611c23565b60405180910390a1565b6000806113556114ac565b905060006113638286610b6f565b9050838110156113a8576040517f08c379a000000000000000000000000000000000000000000000000000000000815260040161139f9061229a565b60405180910390fd5b6113b582868684036114b4565b60019250505092915050565b61145b8383836040516024016113d9939291906122ba565b6040516020818303038152906040527fe3849f79000000000000000000000000000000000000000000000000000000007bffffffffffffffffffffffffffffffffffffffffffffffffffffffff19166020820180517bffffffffffffffffffffffffffffffffffffffffffffffffffffffff8381831617835250505050611483565b505050565b60008061146b6114ac565b905061147881858561170b565b600191505092915050565b60008151905060006a636f6e736f6c652e6c6f679050602083016000808483855afa5050505050565b600033905090565b600073ffffffffffffffffffffffffffffffffffffffff168373ffffffffffffffffffffffffffffffffffffffff161415611524576040517f08c379a000000000000000000000000000000000000000000000000000000000815260040161151b9061236a565b60405180910390fd5b600073ffffffffffffffffffffffffffffffffffffffff168273ffffffffffffffffffffffffffffffffffffffff161415611594576040517f08c379a000000000000000000000000000000000000000000000000000000000815260040161158b906123fc565b60405180910390fd5b80600160008573ffffffffffffffffffffffffffffffffffffffff1673ffffffffffffffffffffffffffffffffffffffff16815260200190815260200160002060008473ffffffffffffffffffffffffffffffffffffffff1673ffffffffffffffffffffffffffffffffffffffff168152602001908152602001600020819055508173ffffffffffffffffffffffffffffffffffffffff168373ffffffffffffffffffffffffffffffffffffffff167f8c5be1e5ebec7d5bd14f71427d1e84f3dd0314c0f7b2291e5b200ac8c7c3b925836040516116729190611b6f565b60405180910390a3505050565b600061168b8484610b6f565b90507fffffffffffffffffffffffffffffffffffffffffffffffffffffffffffffffff811461170557818110156116f7576040517f08c379a00000000000000000000000000000000000000000000000000000000081526004016116ee90612468565b60405180910390fd5b61170484848484036114b4565b5b50505050565b600073ffffffffffffffffffffffffffffffffffffffff168373ffffffffffffffffffffffffffffffffffffffff16141561177b576040517f08c379a0000000000000000000000000000000000000000000000000000000008152600401611772906124fa565b60405180910390fd5b600073ffffffffffffffffffffffffffffffffffffffff168273ffffffffffffffffffffffffffffffffffffffff1614156117eb576040517f08c379a00000000000000000000000000000000000000000000000000000000081526004016117e29061258c565b60405180910390fd5b6117f683838361198c565b60008060008573ffffffffffffffffffffffffffffffffffffffff1673ffffffffffffffffffffffffffffffffffffffff1681526020019081526020016000205490508181101561187c576040517f08c379a00000000000000000000000000000000000000000000000000000000081526004016118739061261e565b60405180910390fd5b8181036000808673ffffffffffffffffffffffffffffffffffffffff1673ffffffffffffffffffffffffffffffffffffffff16815260200190815260200160002081905550816000808573ffffffffffffffffffffffffffffffffffffffff1673ffffffffffffffffffffffffffffffffffffffff168152602001908152602001600020600082825461190f9190611fa2565b925050819055508273ffffffffffffffffffffffffffffffffffffffff168473ffffffffffffffffffffffffffffffffffffffff167fddf252ad1be2c89b69c2b068fc378daa952ba7f163c4a11628f55a4df523b3ef846040516119739190611b6f565b60405180910390a3611986848484611991565b50505050565b505050565b505050565b600081519050919050565b600082825260208201905092915050565b60005b838110156119d05780820151818401526020810190506119b5565b838111156119df576000848401525b50505050565b6000601f19601f8301169050919050565b6000611a0182611996565b611a0b81856119a1565b9350611a1b8185602086016119b2565b611a24816119e5565b840191505092915050565b60006020820190508181036000830152611a4981846119f6565b905092915050565b600080fd5b600073ffffffffffffffffffffffffffffffffffffffff82169050919050565b6000611a8182611a56565b9050919050565b611a9181611a76565b8114611a9c57600080fd5b50565b600081359050611aae81611a88565b92915050565b6000819050919050565b611ac781611ab4565b8114611ad257600080fd5b50565b600081359050611ae481611abe565b92915050565b60008060408385031215611b0157611b00611a51565b5b6000611b0f85828601611a9f565b9250506020611b2085828601611ad5565b9150509250929050565b60008115159050919050565b611b3f81611b2a565b82525050565b6000602082019050611b5a6000830184611b36565b92915050565b611b6981611ab4565b82525050565b6000602082019050611b846000830184611b60565b92915050565b600080600060608486031215611ba357611ba2611a51565b5b6000611bb186828701611a9f565b9350506020611bc286828701611a9f565b9250506040611bd386828701611ad5565b9150509250925092565b600060ff82169050919050565b611bf381611bdd565b82525050565b6000602082019050611c0e6000830184611bea565b92915050565b611c1d81611a76565b82525050565b6000602082019050611c386000830184611c14565b92915050565b600060208284031215611c5457611c53611a51565b5b6000611c6284828501611ad5565b91505092915050565b600060208284031215611c8157611c80611a51565b5b6000611c8f84828501611a9f565b91505092915050565b60008060408385031215611caf57611cae611a51565b5b6000611cbd85828601611a9f565b9250506020611cce85828601611a9f565b9150509250929050565b7f4e487b7100000000000000000000000000000000000000000000000000000000600052602260045260246000fd5b60006002820490506001821680611d1f57607f821691505b60208210811415611d3357611d32611cd8565b5b50919050565b7f496e73756666696369656e742042616c616e6365000000000000000000000000600082015250565b6000611d6f6014836119a1565b9150611d7a82611d39565b602082019050919050565b60006020820190508181036000830152611d9e81611d62565b9050919050565b7f6f6e6c79204f776e65722063616e206163636573730000000000000000000000600082015250565b6000611ddb6015836119a1565b9150611de682611da5565b602082019050919050565b60006020820190508181036000830152611e0a81611dce565b9050919050565b7f4f6e6c792041646d696e00000000000000000000000000000000000000000000600082015250565b6000611e47600a836119a1565b9150611e5282611e11565b602082019050919050565b60006020820190508181036000830152611e7681611e3a565b9050919050565b7f5061757361626c653a2070617573656400000000000000000000000000000000600082015250565b6000611eb36010836119a1565b9150611ebe82611e7d565b602082019050919050565b60006020820190508181036000830152611ee281611ea6565b9050919050565b60006060820190508181036000830152611f0381866119f6565b9050611f126020830185611c14565b611f1f6040830184611b60565b949350505050565b60006080820190508181036000830152611f4181876119f6565b9050611f506020830186611c14565b611f5d6040830185611b60565b611f6a6060830184611c14565b95945050505050565b7f4e487b7100000000000000000000000000000000000000000000000000000000600052601160045260246000fd5b6000611fad82611ab4565b9150611fb883611ab4565b9250827fffffffffffffffffffffffffffffffffffffffffffffffffffffffffffffffff03821115611fed57611fec611f73565b5b828201905092915050565b7f5061757361626c653a206e6f7420706175736564000000000000000000000000600082015250565b600061202e6014836119a1565b915061203982611ff8565b602082019050919050565b6000602082019050818103600083015261205d81612021565b9050919050565b7f45524332303a206d696e7420746f20746865207a65726f206164647265737300600082015250565b600061209a601f836119a1565b91506120a582612064565b602082019050919050565b600060208201905081810360008301526120c98161208d565b9050919050565b7f45524332303a206275726e2066726f6d20746865207a65726f2061646472657360008201527f7300000000000000000000000000000000000000000000000000000000000000602082015250565b600061212c6021836119a1565b9150612137826120d0565b604082019050919050565b6000602082019050818103600083015261215b8161211f565b9050919050565b7f45524332303a206275726e20616d6f756e7420657863656564732062616c616e60008201527f6365000000000000000000000000000000000000000000000000000000000000602082015250565b60006121be6022836119a1565b91506121c982612162565b604082019050919050565b600060208201905081810360008301526121ed816121b1565b9050919050565b60006121ff82611ab4565b915061220a83611ab4565b92508282101561221d5761221c611f73565b5b828203905092915050565b7f45524332303a2064656372656173656420616c6c6f77616e63652062656c6f7760008201527f207a65726f000000000000000000000000000000000000000000000000000000602082015250565b60006122846025836119a1565b915061228f82612228565b604082019050919050565b600060208201905081810360008301526122b381612277565b9050919050565b600060608201905081810360008301526122d481866119f6565b90506122e36020830185611b60565b6122f06040830184611c14565b949350505050565b7f45524332303a20617070726f76652066726f6d20746865207a65726f2061646460008201527f7265737300000000000000000000000000000000000000000000000000000000602082015250565b60006123546024836119a1565b915061235f826122f8565b604082019050919050565b6000602082019050818103600083015261238381612347565b9050919050565b7f45524332303a20617070726f766520746f20746865207a65726f20616464726560008201527f7373000000000000000000000000000000000000000000000000000000000000602082015250565b60006123e66022836119a1565b91506123f18261238a565b604082019050919050565b60006020820190508181036000830152612415816123d9565b9050919050565b7f45524332303a20696e73756666696369656e7420616c6c6f77616e6365000000600082015250565b6000612452601d836119a1565b915061245d8261241c565b602082019050919050565b6000602082019050818103600083015261248181612445565b9050919050565b7f45524332303a207472616e736665722066726f6d20746865207a65726f20616460008201527f6472657373000000000000000000000000000000000000000000000000000000602082015250565b60006124e46025836119a1565b91506124ef82612488565b604082019050919050565b60006020820190508181036000830152612513816124d7565b9050919050565b7f45524332303a207472616e7366657220746f20746865207a65726f206164647260008201527f6573730000000000000000000000000000000000000000000000000000000000602082015250565b60006125766023836119a1565b91506125818261251a565b604082019050919050565b600060208201905081810360008301526125a581612569565b9050919050565b7f45524332303a207472616e7366657220616d6f756e742065786365656473206260008201527f616c616e63650000000000000000000000000000000000000000000000000000602082015250565b60006126086026836119a1565b9150612613826125ac565b604082019050919050565b60006020820190508181036000830152612637816125fb565b905091905056fe617072726f766520257320746f207370656e6420746f6b656e206f6620616d6f756e74202573a264697066735822122022d32e3ff0db1be67d8260ff4e8d984e95890d7d1ae00966e28d3259da3ccc2264736f6c63430008090033",
  "linkReferences": {},
  "deployedLinkReferences": {}
}